{
  "contractName": "Subscrypto",
  "abi": [
    {
      "anonymous": false,
      "inputs": [
        {
          "indexed": true,
          "internalType": "address",
          "name": "sender",
          "type": "address"
        },
        {
          "indexed": true,
          "internalType": "address",
          "name": "receiver",
          "type": "address"
        },
        {
          "indexed": false,
          "internalType": "uint256",
          "name": "amount_withdrawn",
          "type": "uint256"
        }
      ],
      "name": "SubscriptionCancelled",
      "type": "event"
    },
    {
      "anonymous": false,
      "inputs": [
        {
          "indexed": true,
          "internalType": "address",
          "name": "sender",
          "type": "address"
        },
        {
          "indexed": true,
          "internalType": "address",
          "name": "receiver",
          "type": "address"
        },
        {
          "indexed": false,
          "internalType": "uint256",
          "name": "balance",
          "type": "uint256"
        },
        {
          "indexed": false,
          "internalType": "uint256",
          "name": "payment_amount",
          "type": "uint256"
        },
        {
          "indexed": false,
          "internalType": "uint256",
          "name": "time_activated",
          "type": "uint256"
        },
        {
          "indexed": false,
          "internalType": "uint256",
          "name": "time_between_payments",
          "type": "uint256"
        },
        {
          "indexed": false,
          "internalType": "uint256",
          "name": "time_last_paid",
          "type": "uint256"
        }
      ],
      "name": "SubscriptionData",
      "type": "event"
    },
    {
      "inputs": [
        {
          "internalType": "address",
          "name": "receiver",
          "type": "address"
        },
        {
          "internalType": "uint256",
          "name": "payment_amount",
          "type": "uint256"
        },
        {
          "internalType": "uint256",
          "name": "time_between_payments",
          "type": "uint256"
        }
      ],
      "name": "newSubscription",
      "outputs": [],
      "stateMutability": "payable",
      "type": "function"
    },
    {
      "inputs": [
        {
          "internalType": "address",
          "name": "receiver",
          "type": "address"
        }
      ],
      "name": "addBalance",
      "outputs": [],
      "stateMutability": "payable",
      "type": "function"
    },
    {
      "inputs": [
        {
          "internalType": "address",
          "name": "receiver",
          "type": "address"
        }
      ],
      "name": "cancelSubscription",
      "outputs": [],
      "stateMutability": "payable",
      "type": "function"
    },
    {
      "inputs": [
        {
          "internalType": "address",
          "name": "receiver",
          "type": "address"
        },
        {
          "internalType": "uint256",
          "name": "amount",
          "type": "uint256"
        }
      ],
      "name": "withdrawAmount",
      "outputs": [],
      "stateMutability": "payable",
      "type": "function"
    },
    {
      "inputs": [
        {
          "internalType": "address",
          "name": "receiver",
          "type": "address"
        }
      ],
      "name": "withdrawExcess",
      "outputs": [],
      "stateMutability": "payable",
      "type": "function"
    },
    {
      "inputs": [
        {
          "internalType": "address",
          "name": "sender",
          "type": "address"
        },
        {
          "internalType": "address",
          "name": "receiver",
          "type": "address"
        }
      ],
      "name": "isActive",
      "outputs": [
        {
          "internalType": "bool",
          "name": "",
          "type": "bool"
        }
      ],
      "stateMutability": "view",
      "type": "function"
    },
    {
      "inputs": [
        {
          "internalType": "address",
          "name": "sender",
          "type": "address"
        },
        {
          "internalType": "address",
          "name": "receiver",
          "type": "address"
        }
      ],
      "name": "getData",
      "outputs": [
        {
          "internalType": "address",
          "name": "",
          "type": "address"
        },
        {
          "internalType": "address",
          "name": "",
          "type": "address"
        },
        {
          "internalType": "uint256",
          "name": "",
          "type": "uint256"
        },
        {
          "internalType": "uint256",
          "name": "",
          "type": "uint256"
        },
        {
          "internalType": "uint256",
          "name": "",
          "type": "uint256"
        },
        {
          "internalType": "uint256",
          "name": "",
          "type": "uint256"
        }
      ],
      "stateMutability": "nonpayable",
      "type": "function"
    },
    {
      "inputs": [
        {
          "internalType": "address",
          "name": "sender",
          "type": "address"
        }
      ],
      "name": "receiveSubscription",
      "outputs": [
        {
          "internalType": "bool",
          "name": "",
          "type": "bool"
        }
      ],
      "stateMutability": "nonpayable",
      "type": "function"
    }
  ],
  "bytecode": "0x608060405234801561001057600080fd5b50613840806100206000396000f3fe60806040526004361061007b5760003560e01c8063ae131deb1161004e578063ae131deb14610111578063affbf5931461014e578063b49093071461016a578063b5cef24a146101ac5761007b565b8063298e2c5314610080578063356346ac146100bd578063736fe565146100d957806393d81d58146100f5575b600080fd5b34801561008c57600080fd5b506100a760048036038101906100a29190613147565b6101c8565b6040516100b4919061318f565b60405180910390f35b6100d760048036038101906100d291906131e0565b610cfe565b005b6100f360048036038101906100ee9190613233565b611464565b005b61010f600480360381019061010a9190613147565b611a1b565b005b34801561011d57600080fd5b5061013860048036038101906101339190613273565b611df6565b604051610145919061318f565b60405180910390f35b61016860048036038101906101639190613147565b611e85565b005b34801561017657600080fd5b50610191600480360381019061018c9190613273565b6124c9565b6040516101a3969594939291906132d1565b60405180910390f35b6101c660048036038101906101c19190613147565b612ad1565b005b60006101d48233611df6565b610213576040517f08c379a000000000000000000000000000000000000000000000000000000000815260040161020a9061338f565b60405180910390fd5b61021d8233612bb5565b6000808373ffffffffffffffffffffffffffffffffffffffff1673ffffffffffffffffffffffffffffffffffffffff16815260200190815260200160002060000160003373ffffffffffffffffffffffffffffffffffffffff1673ffffffffffffffffffffffffffffffffffffffff168152602001908152602001600020600301546000808473ffffffffffffffffffffffffffffffffffffffff1673ffffffffffffffffffffffffffffffffffffffff16815260200190815260200160002060000160003373ffffffffffffffffffffffffffffffffffffffff1673ffffffffffffffffffffffffffffffffffffffff1681526020019081526020016000206002015410156105cf578173ffffffffffffffffffffffffffffffffffffffff166108fc6000808573ffffffffffffffffffffffffffffffffffffffff1673ffffffffffffffffffffffffffffffffffffffff16815260200190815260200160002060000160003373ffffffffffffffffffffffffffffffffffffffff1673ffffffffffffffffffffffffffffffffffffffff168152602001908152602001600020600201549081150290604051600060405180830381858888f193505050501580156103ee573d6000803e3d6000fd5b503373ffffffffffffffffffffffffffffffffffffffff166108fc6000808573ffffffffffffffffffffffffffffffffffffffff1673ffffffffffffffffffffffffffffffffffffffff16815260200190815260200160002060000160003373ffffffffffffffffffffffffffffffffffffffff1673ffffffffffffffffffffffffffffffffffffffff168152602001908152602001600020600401549081150290604051600060405180830381858888f193505050501580156104b6573d6000803e3d6000fd5b506000808373ffffffffffffffffffffffffffffffffffffffff1673ffffffffffffffffffffffffffffffffffffffff16815260200190815260200160002060000160003373ffffffffffffffffffffffffffffffffffffffff1673ffffffffffffffffffffffffffffffffffffffff168152602001908152602001600020600080820160006101000a81549073ffffffffffffffffffffffffffffffffffffffff02191690556001820160006101000a81549073ffffffffffffffffffffffffffffffffffffffff021916905560028201600090556003820160009055600482016000905560058201600090556006820160009055600782016000905560088201600090556009820160009055505060009050610cf9565b6000808373ffffffffffffffffffffffffffffffffffffffff1673ffffffffffffffffffffffffffffffffffffffff16815260200190815260200160002060000160003373ffffffffffffffffffffffffffffffffffffffff1673ffffffffffffffffffffffffffffffffffffffff168152602001908152602001600020600301546000808473ffffffffffffffffffffffffffffffffffffffff1673ffffffffffffffffffffffffffffffffffffffff16815260200190815260200160002060000160003373ffffffffffffffffffffffffffffffffffffffff1673ffffffffffffffffffffffffffffffffffffffff168152602001908152602001600020600401541015610714576040517f08c379a000000000000000000000000000000000000000000000000000000000815260040161070b906133fb565b60405180910390fd5b3373ffffffffffffffffffffffffffffffffffffffff166108fc6000808573ffffffffffffffffffffffffffffffffffffffff1673ffffffffffffffffffffffffffffffffffffffff16815260200190815260200160002060000160003373ffffffffffffffffffffffffffffffffffffffff1673ffffffffffffffffffffffffffffffffffffffff168152602001908152602001600020600401549081150290604051600060405180830381858888f193505050501580156107db573d6000803e3d6000fd5b506000808373ffffffffffffffffffffffffffffffffffffffff1673ffffffffffffffffffffffffffffffffffffffff16815260200190815260200160002060000160003373ffffffffffffffffffffffffffffffffffffffff1673ffffffffffffffffffffffffffffffffffffffff168152602001908152602001600020600401546000808473ffffffffffffffffffffffffffffffffffffffff1673ffffffffffffffffffffffffffffffffffffffff16815260200190815260200160002060000160003373ffffffffffffffffffffffffffffffffffffffff1673ffffffffffffffffffffffffffffffffffffffff16815260200190815260200160002060050160008282546108ee919061344a565b92505081905550426000808473ffffffffffffffffffffffffffffffffffffffff1673ffffffffffffffffffffffffffffffffffffffff16815260200190815260200160002060000160003373ffffffffffffffffffffffffffffffffffffffff1673ffffffffffffffffffffffffffffffffffffffff1681526020019081526020016000206007018190555060008060008473ffffffffffffffffffffffffffffffffffffffff1673ffffffffffffffffffffffffffffffffffffffff16815260200190815260200160002060000160003373ffffffffffffffffffffffffffffffffffffffff1673ffffffffffffffffffffffffffffffffffffffff168152602001908152602001600020600401819055503373ffffffffffffffffffffffffffffffffffffffff168273ffffffffffffffffffffffffffffffffffffffff167fbc723d17648ae1eb71bf2386026dd608862077dc592c80f572602237df729be76000808673ffffffffffffffffffffffffffffffffffffffff1673ffffffffffffffffffffffffffffffffffffffff16815260200190815260200160002060000160003373ffffffffffffffffffffffffffffffffffffffff1673ffffffffffffffffffffffffffffffffffffffff168152602001908152602001600020600201546000808773ffffffffffffffffffffffffffffffffffffffff1673ffffffffffffffffffffffffffffffffffffffff16815260200190815260200160002060000160003373ffffffffffffffffffffffffffffffffffffffff1673ffffffffffffffffffffffffffffffffffffffff168152602001908152602001600020600301546000808873ffffffffffffffffffffffffffffffffffffffff1673ffffffffffffffffffffffffffffffffffffffff16815260200190815260200160002060000160003373ffffffffffffffffffffffffffffffffffffffff1673ffffffffffffffffffffffffffffffffffffffff168152602001908152602001600020600901546000808973ffffffffffffffffffffffffffffffffffffffff1673ffffffffffffffffffffffffffffffffffffffff16815260200190815260200160002060000160003373ffffffffffffffffffffffffffffffffffffffff1673ffffffffffffffffffffffffffffffffffffffff168152602001908152602001600020600801546000808a73ffffffffffffffffffffffffffffffffffffffff1673ffffffffffffffffffffffffffffffffffffffff16815260200190815260200160002060000160003373ffffffffffffffffffffffffffffffffffffffff1673ffffffffffffffffffffffffffffffffffffffff16815260200190815260200160002060070154604051610cec9594939291906134a0565b60405180910390a3600190505b919050565b610d083384611df6565b61145f5781341015610d4f576040517f08c379a0000000000000000000000000000000000000000000000000000000008152600401610d4690613565565b60405180910390fd5b6040518061014001604052803373ffffffffffffffffffffffffffffffffffffffff1681526020018473ffffffffffffffffffffffffffffffffffffffff16815260200134815260200183815260200160008152602001600081526020014283610db9919061344a565b815260200160008152602001828152602001428152506000803373ffffffffffffffffffffffffffffffffffffffff1673ffffffffffffffffffffffffffffffffffffffff16815260200190815260200160002060000160008573ffffffffffffffffffffffffffffffffffffffff1673ffffffffffffffffffffffffffffffffffffffff16815260200190815260200160002060008201518160000160006101000a81548173ffffffffffffffffffffffffffffffffffffffff021916908373ffffffffffffffffffffffffffffffffffffffff16021790555060208201518160010160006101000a81548173ffffffffffffffffffffffffffffffffffffffff021916908373ffffffffffffffffffffffffffffffffffffffff16021790555060408201518160020155606082015181600301556080820151816004015560a0820151816005015560c0820151816006015560e0820151816007015561010082015181600801556101208201518160090155905050816000803373ffffffffffffffffffffffffffffffffffffffff1673ffffffffffffffffffffffffffffffffffffffff16815260200190815260200160002060000160008573ffffffffffffffffffffffffffffffffffffffff1673ffffffffffffffffffffffffffffffffffffffff1681526020019081526020016000206002016000828254610fc19190613585565b92505081905550816000803373ffffffffffffffffffffffffffffffffffffffff1673ffffffffffffffffffffffffffffffffffffffff16815260200190815260200160002060000160008573ffffffffffffffffffffffffffffffffffffffff1673ffffffffffffffffffffffffffffffffffffffff16815260200190815260200160002060040181905550426000803373ffffffffffffffffffffffffffffffffffffffff1673ffffffffffffffffffffffffffffffffffffffff16815260200190815260200160002060000160008573ffffffffffffffffffffffffffffffffffffffff1673ffffffffffffffffffffffffffffffffffffffff168152602001908152602001600020600701819055506000803373ffffffffffffffffffffffffffffffffffffffff1673ffffffffffffffffffffffffffffffffffffffff16815260200190815260200160002060000160008473ffffffffffffffffffffffffffffffffffffffff1673ffffffffffffffffffffffffffffffffffffffff168152602001908152602001600020600801546000803373ffffffffffffffffffffffffffffffffffffffff1673ffffffffffffffffffffffffffffffffffffffff16815260200190815260200160002060000160008573ffffffffffffffffffffffffffffffffffffffff1673ffffffffffffffffffffffffffffffffffffffff16815260200190815260200160002060060160008282546111e6919061344a565b925050819055508273ffffffffffffffffffffffffffffffffffffffff163373ffffffffffffffffffffffffffffffffffffffff167fbc723d17648ae1eb71bf2386026dd608862077dc592c80f572602237df729be76000803373ffffffffffffffffffffffffffffffffffffffff1673ffffffffffffffffffffffffffffffffffffffff16815260200190815260200160002060000160008773ffffffffffffffffffffffffffffffffffffffff1673ffffffffffffffffffffffffffffffffffffffff168152602001908152602001600020600201546000803373ffffffffffffffffffffffffffffffffffffffff1673ffffffffffffffffffffffffffffffffffffffff16815260200190815260200160002060000160008873ffffffffffffffffffffffffffffffffffffffff1673ffffffffffffffffffffffffffffffffffffffff168152602001908152602001600020600301546000803373ffffffffffffffffffffffffffffffffffffffff1673ffffffffffffffffffffffffffffffffffffffff16815260200190815260200160002060000160008973ffffffffffffffffffffffffffffffffffffffff1673ffffffffffffffffffffffffffffffffffffffff168152602001908152602001600020600901546000803373ffffffffffffffffffffffffffffffffffffffff1673ffffffffffffffffffffffffffffffffffffffff16815260200190815260200160002060000160008a73ffffffffffffffffffffffffffffffffffffffff1673ffffffffffffffffffffffffffffffffffffffff16815260200190815260200160002060080154426040516114569594939291906134a0565b60405180910390a35b505050565b61146e3383612bb5565b806000803373ffffffffffffffffffffffffffffffffffffffff1673ffffffffffffffffffffffffffffffffffffffff16815260200190815260200160002060000160008473ffffffffffffffffffffffffffffffffffffffff1673ffffffffffffffffffffffffffffffffffffffff168152602001908152602001600020600201541015611532576040517f08c379a000000000000000000000000000000000000000000000000000000000815260040161152990613605565b60405180910390fd5b806000803373ffffffffffffffffffffffffffffffffffffffff1673ffffffffffffffffffffffffffffffffffffffff16815260200190815260200160002060000160008473ffffffffffffffffffffffffffffffffffffffff1673ffffffffffffffffffffffffffffffffffffffff16815260200190815260200160002060020160008282546115c39190613585565b925050819055503373ffffffffffffffffffffffffffffffffffffffff166108fc829081150290604051600060405180830381858888f19350505050158015611610573d6000803e3d6000fd5b506000803373ffffffffffffffffffffffffffffffffffffffff1673ffffffffffffffffffffffffffffffffffffffff16815260200190815260200160002060000160008373ffffffffffffffffffffffffffffffffffffffff1673ffffffffffffffffffffffffffffffffffffffff168152602001908152602001600020600301546000803373ffffffffffffffffffffffffffffffffffffffff1673ffffffffffffffffffffffffffffffffffffffff16815260200190815260200160002060000160008473ffffffffffffffffffffffffffffffffffffffff1673ffffffffffffffffffffffffffffffffffffffff1681526020019081526020016000206002015410156117255761172482611a1b565b5b8173ffffffffffffffffffffffffffffffffffffffff163373ffffffffffffffffffffffffffffffffffffffff167fbc723d17648ae1eb71bf2386026dd608862077dc592c80f572602237df729be76000803373ffffffffffffffffffffffffffffffffffffffff1673ffffffffffffffffffffffffffffffffffffffff16815260200190815260200160002060000160008673ffffffffffffffffffffffffffffffffffffffff1673ffffffffffffffffffffffffffffffffffffffff168152602001908152602001600020600201546000803373ffffffffffffffffffffffffffffffffffffffff1673ffffffffffffffffffffffffffffffffffffffff16815260200190815260200160002060000160008773ffffffffffffffffffffffffffffffffffffffff1673ffffffffffffffffffffffffffffffffffffffff168152602001908152602001600020600301546000803373ffffffffffffffffffffffffffffffffffffffff1673ffffffffffffffffffffffffffffffffffffffff16815260200190815260200160002060000160008873ffffffffffffffffffffffffffffffffffffffff1673ffffffffffffffffffffffffffffffffffffffff168152602001908152602001600020600901546000803373ffffffffffffffffffffffffffffffffffffffff1673ffffffffffffffffffffffffffffffffffffffff16815260200190815260200160002060000160008973ffffffffffffffffffffffffffffffffffffffff1673ffffffffffffffffffffffffffffffffffffffff168152602001908152602001600020600801546000803373ffffffffffffffffffffffffffffffffffffffff1673ffffffffffffffffffffffffffffffffffffffff16815260200190815260200160002060000160008a73ffffffffffffffffffffffffffffffffffffffff1673ffffffffffffffffffffffffffffffffffffffff16815260200190815260200160002060070154604051611a0f9594939291906134a0565b60405180910390a35050565b611a253382611df6565b611a64576040517f08c379a0000000000000000000000000000000000000000000000000000000008152600401611a5b90613671565b60405180910390fd5b8073ffffffffffffffffffffffffffffffffffffffff163373ffffffffffffffffffffffffffffffffffffffff167f2a47f085432d570578d89b5af31bea93cab7ad5e04e171eb39a89307f88035d56000803373ffffffffffffffffffffffffffffffffffffffff1673ffffffffffffffffffffffffffffffffffffffff16815260200190815260200160002060000160008573ffffffffffffffffffffffffffffffffffffffff1673ffffffffffffffffffffffffffffffffffffffff16815260200190815260200160002060020154604051611b429190613691565b60405180910390a3611b543382612bb5565b3373ffffffffffffffffffffffffffffffffffffffff166108fc6000803373ffffffffffffffffffffffffffffffffffffffff1673ffffffffffffffffffffffffffffffffffffffff16815260200190815260200160002060000160008473ffffffffffffffffffffffffffffffffffffffff1673ffffffffffffffffffffffffffffffffffffffff168152602001908152602001600020600201549081150290604051600060405180830381858888f19350505050158015611c1b573d6000803e3d6000fd5b508073ffffffffffffffffffffffffffffffffffffffff166108fc6000803373ffffffffffffffffffffffffffffffffffffffff1673ffffffffffffffffffffffffffffffffffffffff16815260200190815260200160002060000160008473ffffffffffffffffffffffffffffffffffffffff1673ffffffffffffffffffffffffffffffffffffffff168152602001908152602001600020600401549081150290604051600060405180830381858888f19350505050158015611ce3573d6000803e3d6000fd5b506000803373ffffffffffffffffffffffffffffffffffffffff1673ffffffffffffffffffffffffffffffffffffffff16815260200190815260200160002060000160008273ffffffffffffffffffffffffffffffffffffffff1673ffffffffffffffffffffffffffffffffffffffff168152602001908152602001600020600080820160006101000a81549073ffffffffffffffffffffffffffffffffffffffff02191690556001820160006101000a81549073ffffffffffffffffffffffffffffffffffffffff021916905560028201600090556003820160009055600482016000905560058201600090556006820160009055600782016000905560088201600090556009820160009055505050565b6000806000808573ffffffffffffffffffffffffffffffffffffffff1673ffffffffffffffffffffffffffffffffffffffff16815260200190815260200160002060000160008473ffffffffffffffffffffffffffffffffffffffff1673ffffffffffffffffffffffffffffffffffffffff168152602001908152602001600020600601541415905092915050565b611e8f3382611df6565b611ece576040517f08c379a0000000000000000000000000000000000000000000000000000000008152600401611ec59061338f565b60405180910390fd5b60008060003373ffffffffffffffffffffffffffffffffffffffff1673ffffffffffffffffffffffffffffffffffffffff16815260200190815260200160002060000160008373ffffffffffffffffffffffffffffffffffffffff1673ffffffffffffffffffffffffffffffffffffffff168152602001908152602001600020600301546000803373ffffffffffffffffffffffffffffffffffffffff1673ffffffffffffffffffffffffffffffffffffffff16815260200190815260200160002060000160008473ffffffffffffffffffffffffffffffffffffffff1673ffffffffffffffffffffffffffffffffffffffff16815260200190815260200160002060020154611fde91906136db565b9050806000803373ffffffffffffffffffffffffffffffffffffffff1673ffffffffffffffffffffffffffffffffffffffff16815260200190815260200160002060000160008473ffffffffffffffffffffffffffffffffffffffff1673ffffffffffffffffffffffffffffffffffffffff16815260200190815260200160002060020160008282546120719190613585565b925050819055503373ffffffffffffffffffffffffffffffffffffffff166108fc829081150290604051600060405180830381858888f193505050501580156120be573d6000803e3d6000fd5b506000803373ffffffffffffffffffffffffffffffffffffffff1673ffffffffffffffffffffffffffffffffffffffff16815260200190815260200160002060000160008373ffffffffffffffffffffffffffffffffffffffff1673ffffffffffffffffffffffffffffffffffffffff168152602001908152602001600020600301546000803373ffffffffffffffffffffffffffffffffffffffff1673ffffffffffffffffffffffffffffffffffffffff16815260200190815260200160002060000160008473ffffffffffffffffffffffffffffffffffffffff1673ffffffffffffffffffffffffffffffffffffffff1681526020019081526020016000206002015410156121d3576121d282611a1b565b5b8173ffffffffffffffffffffffffffffffffffffffff163373ffffffffffffffffffffffffffffffffffffffff167fbc723d17648ae1eb71bf2386026dd608862077dc592c80f572602237df729be76000803373ffffffffffffffffffffffffffffffffffffffff1673ffffffffffffffffffffffffffffffffffffffff16815260200190815260200160002060000160008673ffffffffffffffffffffffffffffffffffffffff1673ffffffffffffffffffffffffffffffffffffffff168152602001908152602001600020600201546000803373ffffffffffffffffffffffffffffffffffffffff1673ffffffffffffffffffffffffffffffffffffffff16815260200190815260200160002060000160008773ffffffffffffffffffffffffffffffffffffffff1673ffffffffffffffffffffffffffffffffffffffff168152602001908152602001600020600301546000803373ffffffffffffffffffffffffffffffffffffffff1673ffffffffffffffffffffffffffffffffffffffff16815260200190815260200160002060000160008873ffffffffffffffffffffffffffffffffffffffff1673ffffffffffffffffffffffffffffffffffffffff168152602001908152602001600020600901546000803373ffffffffffffffffffffffffffffffffffffffff1673ffffffffffffffffffffffffffffffffffffffff16815260200190815260200160002060000160008973ffffffffffffffffffffffffffffffffffffffff1673ffffffffffffffffffffffffffffffffffffffff168152602001908152602001600020600801546000803373ffffffffffffffffffffffffffffffffffffffff1673ffffffffffffffffffffffffffffffffffffffff16815260200190815260200160002060000160008a73ffffffffffffffffffffffffffffffffffffffff1673ffffffffffffffffffffffffffffffffffffffff168152602001908152602001600020600701546040516124bd9594939291906134a0565b60405180910390a35050565b6000806000806000808773ffffffffffffffffffffffffffffffffffffffff163373ffffffffffffffffffffffffffffffffffffffff16148061253757508673ffffffffffffffffffffffffffffffffffffffff163373ffffffffffffffffffffffffffffffffffffffff16145b612576576040517f08c379a000000000000000000000000000000000000000000000000000000000815260040161256d90613758565b60405180910390fd5b6125808888611df6565b6125bf576040517f08c379a00000000000000000000000000000000000000000000000000000000081526004016125b69061338f565b60405180910390fd5b8673ffffffffffffffffffffffffffffffffffffffff163373ffffffffffffffffffffffffffffffffffffffff167fbc723d17648ae1eb71bf2386026dd608862077dc592c80f572602237df729be76000803373ffffffffffffffffffffffffffffffffffffffff1673ffffffffffffffffffffffffffffffffffffffff16815260200190815260200160002060000160008b73ffffffffffffffffffffffffffffffffffffffff1673ffffffffffffffffffffffffffffffffffffffff168152602001908152602001600020600201546000803373ffffffffffffffffffffffffffffffffffffffff1673ffffffffffffffffffffffffffffffffffffffff16815260200190815260200160002060000160008c73ffffffffffffffffffffffffffffffffffffffff1673ffffffffffffffffffffffffffffffffffffffff168152602001908152602001600020600301546000803373ffffffffffffffffffffffffffffffffffffffff1673ffffffffffffffffffffffffffffffffffffffff16815260200190815260200160002060000160008d73ffffffffffffffffffffffffffffffffffffffff1673ffffffffffffffffffffffffffffffffffffffff168152602001908152602001600020600901546000803373ffffffffffffffffffffffffffffffffffffffff1673ffffffffffffffffffffffffffffffffffffffff16815260200190815260200160002060000160008e73ffffffffffffffffffffffffffffffffffffffff1673ffffffffffffffffffffffffffffffffffffffff168152602001908152602001600020600801546000803373ffffffffffffffffffffffffffffffffffffffff1673ffffffffffffffffffffffffffffffffffffffff16815260200190815260200160002060000160008f73ffffffffffffffffffffffffffffffffffffffff1673ffffffffffffffffffffffffffffffffffffffff168152602001908152602001600020600701546040516128a99594939291906134a0565b60405180910390a387876000808b73ffffffffffffffffffffffffffffffffffffffff1673ffffffffffffffffffffffffffffffffffffffff16815260200190815260200160002060000160008a73ffffffffffffffffffffffffffffffffffffffff1673ffffffffffffffffffffffffffffffffffffffff168152602001908152602001600020600201546000808c73ffffffffffffffffffffffffffffffffffffffff1673ffffffffffffffffffffffffffffffffffffffff16815260200190815260200160002060000160008b73ffffffffffffffffffffffffffffffffffffffff1673ffffffffffffffffffffffffffffffffffffffff168152602001908152602001600020600301546000808d73ffffffffffffffffffffffffffffffffffffffff1673ffffffffffffffffffffffffffffffffffffffff16815260200190815260200160002060000160008c73ffffffffffffffffffffffffffffffffffffffff1673ffffffffffffffffffffffffffffffffffffffff168152602001908152602001600020600901546000808e73ffffffffffffffffffffffffffffffffffffffff1673ffffffffffffffffffffffffffffffffffffffff16815260200190815260200160002060000160008d73ffffffffffffffffffffffffffffffffffffffff1673ffffffffffffffffffffffffffffffffffffffff168152602001908152602001600020600801549550955095509550955095509295509295509295565b612adb3382611df6565b612b1a576040517f08c379a0000000000000000000000000000000000000000000000000000000008152600401612b119061338f565b60405180910390fd5b346000803373ffffffffffffffffffffffffffffffffffffffff1673ffffffffffffffffffffffffffffffffffffffff16815260200190815260200160002060000160008373ffffffffffffffffffffffffffffffffffffffff1673ffffffffffffffffffffffffffffffffffffffff1681526020019081526020016000206002016000828254612bab919061344a565b9250508190555050565b612bbf8282611df6565b612bfe576040517f08c379a0000000000000000000000000000000000000000000000000000000008152600401612bf5906137ea565b60405180910390fd5b5b426000808473ffffffffffffffffffffffffffffffffffffffff1673ffffffffffffffffffffffffffffffffffffffff16815260200190815260200160002060000160008373ffffffffffffffffffffffffffffffffffffffff1673ffffffffffffffffffffffffffffffffffffffff16815260200190815260200160002060060154116130e0576000808373ffffffffffffffffffffffffffffffffffffffff1673ffffffffffffffffffffffffffffffffffffffff16815260200190815260200160002060000160008273ffffffffffffffffffffffffffffffffffffffff1673ffffffffffffffffffffffffffffffffffffffff168152602001908152602001600020600301546000808473ffffffffffffffffffffffffffffffffffffffff1673ffffffffffffffffffffffffffffffffffffffff16815260200190815260200160002060000160008373ffffffffffffffffffffffffffffffffffffffff1673ffffffffffffffffffffffffffffffffffffffff16815260200190815260200160002060020154106130e0576000808373ffffffffffffffffffffffffffffffffffffffff1673ffffffffffffffffffffffffffffffffffffffff16815260200190815260200160002060000160008273ffffffffffffffffffffffffffffffffffffffff1673ffffffffffffffffffffffffffffffffffffffff168152602001908152602001600020600801546000808473ffffffffffffffffffffffffffffffffffffffff1673ffffffffffffffffffffffffffffffffffffffff16815260200190815260200160002060000160008373ffffffffffffffffffffffffffffffffffffffff1673ffffffffffffffffffffffffffffffffffffffff1681526020019081526020016000206006016000828254612ea2919061344a565b925050819055506000808373ffffffffffffffffffffffffffffffffffffffff1673ffffffffffffffffffffffffffffffffffffffff16815260200190815260200160002060000160008273ffffffffffffffffffffffffffffffffffffffff1673ffffffffffffffffffffffffffffffffffffffff168152602001908152602001600020600301546000808473ffffffffffffffffffffffffffffffffffffffff1673ffffffffffffffffffffffffffffffffffffffff16815260200190815260200160002060000160008373ffffffffffffffffffffffffffffffffffffffff1673ffffffffffffffffffffffffffffffffffffffff1681526020019081526020016000206002016000828254612fbb9190613585565b925050819055506000808373ffffffffffffffffffffffffffffffffffffffff1673ffffffffffffffffffffffffffffffffffffffff16815260200190815260200160002060000160008273ffffffffffffffffffffffffffffffffffffffff1673ffffffffffffffffffffffffffffffffffffffff168152602001908152602001600020600301546000808473ffffffffffffffffffffffffffffffffffffffff1673ffffffffffffffffffffffffffffffffffffffff16815260200190815260200160002060000160008373ffffffffffffffffffffffffffffffffffffffff1673ffffffffffffffffffffffffffffffffffffffff16815260200190815260200160002060040160008282546130d4919061344a565b92505081905550612bff565b5050565b600080fd5b600073ffffffffffffffffffffffffffffffffffffffff82169050919050565b6000613114826130e9565b9050919050565b61312481613109565b811461312f57600080fd5b50565b6000813590506131418161311b565b92915050565b60006020828403121561315d5761315c6130e4565b5b600061316b84828501613132565b91505092915050565b60008115159050919050565b61318981613174565b82525050565b60006020820190506131a46000830184613180565b92915050565b6000819050919050565b6131bd816131aa565b81146131c857600080fd5b50565b6000813590506131da816131b4565b92915050565b6000806000606084860312156131f9576131f86130e4565b5b600061320786828701613132565b9350506020613218868287016131cb565b9250506040613229868287016131cb565b9150509250925092565b6000806040838503121561324a576132496130e4565b5b600061325885828601613132565b9250506020613269858286016131cb565b9150509250929050565b6000806040838503121561328a576132896130e4565b5b600061329885828601613132565b92505060206132a985828601613132565b9150509250929050565b6132bc81613109565b82525050565b6132cb816131aa565b82525050565b600060c0820190506132e660008301896132b3565b6132f360208301886132b3565b61330060408301876132c2565b61330d60608301866132c2565b61331a60808301856132c2565b61332760a08301846132c2565b979650505050505050565b600082825260208201905092915050565b7f537562736372697074696f6e206e6f7420616374697665210000000000000000600082015250565b6000613379601883613332565b915061338482613343565b602082019050919050565b600060208201905081810360008301526133a88161336c565b9050919050565b7f4e6f2045544820746f20626520636f6c6c656374656421000000000000000000600082015250565b60006133e5601783613332565b91506133f0826133af565b602082019050919050565b60006020820190508181036000830152613414816133d8565b9050919050565b7f4e487b7100000000000000000000000000000000000000000000000000000000600052601160045260246000fd5b6000613455826131aa565b9150613460836131aa565b9250827fffffffffffffffffffffffffffffffffffffffffffffffffffffffffffffffff038211156134955761349461341b565b5b828201905092915050565b600060a0820190506134b560008301886132c2565b6134c260208301876132c2565b6134cf60408301866132c2565b6134dc60608301856132c2565b6134e960808301846132c2565b9695505050505050565b7f4e6f7420656e6f7567682045544820666f72206669727374207061796d656e7460008201527f2100000000000000000000000000000000000000000000000000000000000000602082015250565b600061354f602183613332565b915061355a826134f3565b604082019050919050565b6000602082019050818103600083015261357e81613542565b9050919050565b6000613590826131aa565b915061359b836131aa565b9250828210156135ae576135ad61341b565b5b828203905092915050565b7f42616c616e636520746f6f206c6f772100000000000000000000000000000000600082015250565b60006135ef601083613332565b91506135fa826135b9565b602082019050919050565b6000602082019050818103600083015261361e816135e2565b9050919050565b7f537562736372697074696f6e206e6f7420616374697665000000000000000000600082015250565b600061365b601783613332565b915061366682613625565b602082019050919050565b6000602082019050818103600083015261368a8161364e565b9050919050565b60006020820190506136a660008301846132c2565b92915050565b7f4e487b7100000000000000000000000000000000000000000000000000000000600052601260045260246000fd5b60006136e6826131aa565b91506136f1836131aa565b925082613701576137006136ac565b5b828206905092915050565b7f4163636573732064656e69656420746f20746869726420706172747900000000600082015250565b6000613742601c83613332565b915061374d8261370c565b602082019050919050565b6000602082019050818103600083015261377181613735565b9050919050565b7f537562736372697074696f6e20706c616e20646f6573206e6f7420657869737460008201527f2100000000000000000000000000000000000000000000000000000000000000602082015250565b60006137d4602183613332565b91506137df82613778565b604082019050919050565b60006020820190508181036000830152613803816137c7565b905091905056fea264697066735822122076869b44d4b44ae9c36eac04e4a6aefb65790100a531d497157e1683e1ef35e564736f6c634300080d0033",
  "immutableReferences": {},
  "source": "// SPDX-License-Identifier: MIT\n\npragma solidity >=0.6.0 <0.9.0;\n\ncontract Subscrypto {\n    // Data about a subscription\n    // Emitted on creation of a new subscription\n    // Or on request of one of the two parties involved (sender or receiver)\n    event SubscriptionData (\n        address indexed sender,\n        address indexed receiver,\n        uint256 balance,\n        uint256 payment_amount,\n        uint time_activated,\n        uint time_between_payments,\n        uint time_last_paid\n    );\n\n    // Announcement of a cancelled subscription\n    // Emitted when cancelSubscription() is called\n    event SubscriptionCancelled (\n        address indexed sender,\n        address indexed receiver,\n        uint256 amount_withdrawn\n    );\n\n    // SubscriptionInfo struct\n    struct SubscriptionInfo {\n        address sender; // payer of subscription \n        address receiver; // payee of subscription\n        uint256 balance; // unused amount left in subscription \n        uint256 payment_amount; // agreed amount paid at each interval\n        uint256 payment_available; // amount ready to be paid out to payee instantly\n        uint256 total_paid; // total amount paid out from this subscription\n        uint next_payment_time; // next timestamp that payment_amount should be deducted from balance and added to payment_available\n        uint last_payment_time; // last time a payment was made from this subscription\n        uint time_between_payments; // interval between payment times\n        uint time_activated; // time the subscription was created\n    }\n\n    // Subscrypto Account which contains all subscriptions of a certain user\n    struct SubscryptoAccount {\n        mapping(address => SubscriptionInfo) subscriptions;\n    }\n\n    // Map which stores Subscrypto Accounts for each user\n    mapping(address => SubscryptoAccount) accounts;\n    \n    function newSubscription(address receiver, uint256 payment_amount, uint time_between_payments) public payable {\n        // If subscription already exists, do nothing - cannot create two subscriptions with same parties\n        if (isActive(msg.sender, receiver)) {\n            return;\n        } \n        // If subscription does not exist, create new subscription\n        require(msg.value >= payment_amount, \"Not enough ETH for first payment!\");\n        accounts[msg.sender].subscriptions[receiver] = SubscriptionInfo(msg.sender, receiver, msg.value, payment_amount, 0, 0, time_between_payments + block.timestamp, 0, time_between_payments, block.timestamp);\n        accounts[msg.sender].subscriptions[receiver].balance -= payment_amount;\n        accounts[msg.sender].subscriptions[receiver].payment_available = payment_amount;\n        accounts[msg.sender].subscriptions[receiver].last_payment_time = block.timestamp;\n        accounts[msg.sender].subscriptions[receiver].next_payment_time += accounts[msg.sender].subscriptions[receiver].time_between_payments;\n        // Log the new subscription\n        emit SubscriptionData(msg.sender, receiver, accounts[msg.sender].subscriptions[receiver].balance, accounts[msg.sender].subscriptions[receiver].payment_amount, accounts[msg.sender].subscriptions[receiver].time_activated, accounts[msg.sender].subscriptions[receiver].time_between_payments, block.timestamp);\n    }\n\n    // Add balance to an existing subscriptionInfo struct\n    function addBalance(address receiver) public payable {\n        require(isActive(msg.sender, receiver), \"Subscription not active!\");\n        accounts[msg.sender].subscriptions[receiver].balance += msg.value;\n    }\n\n    // Allows a subscriber to withdraw their excess ETH and cancel their subscription \n    function cancelSubscription(address receiver) public payable {\n        require(isActive(msg.sender, receiver), \"Subscription not active\");\n        // Log the cancelled subscription\n        emit SubscriptionCancelled(msg.sender, receiver, accounts[msg.sender].subscriptions[receiver].balance);\n        // Transfer money to appropriate parties\n        updatePaymentAvailable(msg.sender, receiver);\n        payable(msg.sender).transfer(accounts[msg.sender].subscriptions[receiver].balance);\n        payable(receiver).transfer(accounts[msg.sender].subscriptions[receiver].payment_available);\n        // Reset the subscription\n        delete(accounts[msg.sender].subscriptions[receiver]);\n    }\n \n    // Withdraws a specified amount from subscription plan\n    function withdrawAmount(address receiver, uint256 amount) public payable {\n        updatePaymentAvailable(msg.sender, receiver);\n        require(accounts[msg.sender].subscriptions[receiver].balance >= amount, \"Balance too low!\");\n        accounts[msg.sender].subscriptions[receiver].balance -= amount;\n        payable(msg.sender).transfer(amount);\n        if (accounts[msg.sender].subscriptions[receiver].balance < accounts[msg.sender].subscriptions[receiver].payment_amount) {\n            cancelSubscription(receiver);\n        }\n        emit SubscriptionData(msg.sender, receiver, accounts[msg.sender].subscriptions[receiver].balance, accounts[msg.sender].subscriptions[receiver].payment_amount, accounts[msg.sender].subscriptions[receiver].time_activated, accounts[msg.sender].subscriptions[receiver].time_between_payments, accounts[msg.sender].subscriptions[receiver].last_payment_time);\n    }\n\n    // Withdraws any excess ETH being held in escrow by the contract\n    // Cancels subscription if balance falls below payment_amount\n    function withdrawExcess(address receiver) public payable {\n        require(isActive(msg.sender, receiver), \"Subscription not active!\");\n        uint256 remainder = accounts[msg.sender].subscriptions[receiver].balance % accounts[msg.sender].subscriptions[receiver].payment_amount;\n        accounts[msg.sender].subscriptions[receiver].balance -= remainder;\n        payable(msg.sender).transfer(remainder);\n        if (accounts[msg.sender].subscriptions[receiver].balance < accounts[msg.sender].subscriptions[receiver].payment_amount) {\n            cancelSubscription(receiver);\n        }\n        emit SubscriptionData(msg.sender, receiver, accounts[msg.sender].subscriptions[receiver].balance, accounts[msg.sender].subscriptions[receiver].payment_amount, accounts[msg.sender].subscriptions[receiver].time_activated, accounts[msg.sender].subscriptions[receiver].time_between_payments, accounts[msg.sender].subscriptions[receiver].last_payment_time);\n    }\n\n    // Checks if a subscription or payment over time is currently active, returns true if active, false otherwise\n    function isActive(address sender, address receiver) view public returns (bool) {\n        return accounts[sender].subscriptions[receiver].next_payment_time != 0;\n    }\n\n    // Emits attributes of a SubscriptionInfo struct\n    function getData(address sender, address receiver) public returns (address, address, uint256, uint256, uint, uint) {\n        require(msg.sender == sender || msg.sender == receiver, \"Access denied to third party\");\n        require(isActive(sender, receiver), \"Subscription not active!\");\n        emit SubscriptionData(msg.sender, receiver, accounts[msg.sender].subscriptions[receiver].balance, accounts[msg.sender].subscriptions[receiver].payment_amount, accounts[msg.sender].subscriptions[receiver].time_activated, accounts[msg.sender].subscriptions[receiver].time_between_payments, accounts[msg.sender].subscriptions[receiver].last_payment_time);\n        return (sender, receiver, accounts[sender].subscriptions[receiver].balance, accounts[sender].subscriptions[receiver].payment_amount, accounts[sender].subscriptions[receiver].time_activated, accounts[sender].subscriptions[receiver].time_between_payments);\n    }\n\n    // Called by subscription seller to receive their payment\n    function receiveSubscription(address sender) public returns (bool) {\n        require(isActive(sender, msg.sender), \"Subscription not active!\");\n        updatePaymentAvailable(sender, msg.sender); // update amount to pay immediately before payment has to be made\n        // Cancel subscription if balance is not enough\n        if (accounts[sender].subscriptions[msg.sender].balance < accounts[sender].subscriptions[msg.sender].payment_amount) {\n            // Transfer money to appropriate parties\n            payable(sender).transfer(accounts[sender].subscriptions[msg.sender].balance);\n            payable(msg.sender).transfer(accounts[sender].subscriptions[msg.sender].payment_available);\n            // Reset the subscription\n            delete(accounts[sender].subscriptions[msg.sender]);\n            return false;\n        }\n        require(accounts[sender].subscriptions[msg.sender].payment_available >= accounts[sender].subscriptions[msg.sender].payment_amount, \"No ETH to be collected!\");\n        payable(msg.sender).transfer(accounts[sender].subscriptions[msg.sender].payment_available);\n        accounts[sender].subscriptions[msg.sender].total_paid += accounts[sender].subscriptions[msg.sender].payment_available;\n        accounts[sender].subscriptions[msg.sender].last_payment_time = block.timestamp;\n        accounts[sender].subscriptions[msg.sender].payment_available = 0;\n        emit SubscriptionData(sender, msg.sender, accounts[sender].subscriptions[msg.sender].balance, accounts[sender].subscriptions[msg.sender].payment_amount, accounts[sender].subscriptions[msg.sender].time_activated, accounts[sender].subscriptions[msg.sender].time_between_payments, accounts[sender].subscriptions[msg.sender].last_payment_time);\n        return true;\n    }\n\n    // Update the payment available to collect\n    function updatePaymentAvailable(address sender, address receiver) private {\n        require(isActive(sender, receiver), \"Subscription plan does not exist!\");\n        while (accounts[sender].subscriptions[receiver].next_payment_time <= block.timestamp) {\n            // Check that there is enough balance\n            if (accounts[sender].subscriptions[receiver].balance < accounts[sender].subscriptions[receiver].payment_amount) {\n                break;\n            }\n            // Adjust next payment time\n            accounts[sender].subscriptions[receiver].next_payment_time += accounts[sender].subscriptions[receiver].time_between_payments;\n            // Reduce balance by agreed amount\n            accounts[sender].subscriptions[receiver].balance -= accounts[sender].subscriptions[receiver].payment_amount;\n            // Increase total ETH available to collect by agreed amount\n            accounts[sender].subscriptions[receiver].payment_available += accounts[sender].subscriptions[receiver].payment_amount;\n            // Repeat if necessary (maybe the subscription seller hasn't cashed out in a long time?)\n        }\n    }\n}",
  "sourcePath": "/Users/aaronskepasts/Projects/COS495/ContractCreator/contracts/Subscrypto.sol",
  "compiler": {
    "name": "solc",
    "version": "0.8.13+commit.abaa5c0e.Emscripten.clang"
  },
  "schemaVersion": "3.4.7",
  "updatedAt": "2022-05-03T07:07:56.137Z",
  "devdoc": {
    "kind": "dev",
    "methods": {},
    "version": 1
  },
  "userdoc": {
    "kind": "user",
    "methods": {},
    "version": 1
  }
}