{
  "contractName": "Subscrypto",
  "abi": [
    {
      "anonymous": false,
      "inputs": [
        {
          "indexed": true,
          "internalType": "address",
          "name": "sender",
          "type": "address"
        },
        {
          "indexed": true,
          "internalType": "address",
          "name": "receiver",
          "type": "address"
        },
        {
          "indexed": false,
          "internalType": "uint256",
          "name": "amount_withdrawn",
          "type": "uint256"
        }
      ],
      "name": "SubscriptionCancelled",
      "type": "event"
    },
    {
      "anonymous": false,
      "inputs": [
        {
          "indexed": true,
          "internalType": "address",
          "name": "sender",
          "type": "address"
        },
        {
          "indexed": true,
          "internalType": "address",
          "name": "receiver",
          "type": "address"
        },
        {
          "indexed": false,
          "internalType": "uint256",
          "name": "balance",
          "type": "uint256"
        },
        {
          "indexed": false,
          "internalType": "uint256",
          "name": "payment_amount",
          "type": "uint256"
        },
        {
          "indexed": false,
          "internalType": "uint256",
          "name": "time_activated",
          "type": "uint256"
        },
        {
          "indexed": false,
          "internalType": "uint256",
          "name": "time_between_payments",
          "type": "uint256"
        }
      ],
      "name": "SubscriptionData",
      "type": "event"
    },
    {
      "inputs": [
        {
          "internalType": "address",
          "name": "receiver",
          "type": "address"
        },
        {
          "internalType": "uint256",
          "name": "payment_amount",
          "type": "uint256"
        },
        {
          "internalType": "uint256",
          "name": "time_between_payments",
          "type": "uint256"
        }
      ],
      "name": "newSubscription",
      "outputs": [],
      "stateMutability": "payable",
      "type": "function",
      "payable": true
    },
    {
      "inputs": [
        {
          "internalType": "address",
          "name": "receiver",
          "type": "address"
        }
      ],
      "name": "addBalance",
      "outputs": [],
      "stateMutability": "payable",
      "type": "function",
      "payable": true
    },
    {
      "inputs": [
        {
          "internalType": "address",
          "name": "receiver",
          "type": "address"
        }
      ],
      "name": "cancelSubscription",
      "outputs": [],
      "stateMutability": "payable",
      "type": "function",
      "payable": true
    },
    {
      "inputs": [
        {
          "internalType": "address",
          "name": "receiver",
          "type": "address"
        },
        {
          "internalType": "uint256",
          "name": "amount",
          "type": "uint256"
        }
      ],
      "name": "withdrawAmount",
      "outputs": [],
      "stateMutability": "payable",
      "type": "function",
      "payable": true
    },
    {
      "inputs": [
        {
          "internalType": "address",
          "name": "receiver",
          "type": "address"
        }
      ],
      "name": "withdrawExcess",
      "outputs": [],
      "stateMutability": "payable",
      "type": "function",
      "payable": true
    },
    {
      "inputs": [
        {
          "internalType": "address",
          "name": "sender",
          "type": "address"
        },
        {
          "internalType": "address",
          "name": "receiver",
          "type": "address"
        }
      ],
      "name": "isActive",
      "outputs": [
        {
          "internalType": "bool",
          "name": "",
          "type": "bool"
        }
      ],
      "stateMutability": "view",
      "type": "function",
      "constant": true
    },
    {
      "inputs": [
        {
          "internalType": "address",
          "name": "sender",
          "type": "address"
        },
        {
          "internalType": "address",
          "name": "receiver",
          "type": "address"
        }
      ],
      "name": "getData",
      "outputs": [
        {
          "internalType": "address",
          "name": "",
          "type": "address"
        },
        {
          "internalType": "address",
          "name": "",
          "type": "address"
        },
        {
          "internalType": "uint256",
          "name": "",
          "type": "uint256"
        },
        {
          "internalType": "uint256",
          "name": "",
          "type": "uint256"
        },
        {
          "internalType": "uint256",
          "name": "",
          "type": "uint256"
        },
        {
          "internalType": "uint256",
          "name": "",
          "type": "uint256"
        }
      ],
      "stateMutability": "nonpayable",
      "type": "function"
    },
    {
      "inputs": [
        {
          "internalType": "address",
          "name": "sender",
          "type": "address"
        }
      ],
      "name": "receiveSubscription",
      "outputs": [
        {
          "internalType": "bool",
          "name": "",
          "type": "bool"
        }
      ],
      "stateMutability": "nonpayable",
      "type": "function"
    }
  ],
  "bytecode": "0x608060405234801561001057600080fd5b50612fc7806100206000396000f3fe60806040526004361061007b5760003560e01c8063ae131deb1161004e578063ae131deb14610111578063affbf5931461014e578063b49093071461016a578063b5cef24a146101ac5761007b565b8063298e2c5314610080578063356346ac146100bd578063736fe565146100d957806393d81d58146100f5575b600080fd5b34801561008c57600080fd5b506100a760048036038101906100a291906128dc565b6101c8565b6040516100b49190612924565b60405180910390f35b6100d760048036038101906100d29190612975565b610a0c565b005b6100f360048036038101906100ee91906129c8565b6111f9565b005b61010f600480360381019061010a91906128dc565b6114b4565b005b34801561011d57600080fd5b5061013860048036038101906101339190612a08565b611885565b6040516101459190612924565b60405180910390f35b610168600480360381019061016391906128dc565b611914565b005b34801561017657600080fd5b50610191600480360381019061018c9190612a08565b611c66565b6040516101a396959493929190612a66565b60405180910390f35b6101c660048036038101906101c191906128dc565b6121eb565b005b60006101d48233611885565b610213576040517f08c379a000000000000000000000000000000000000000000000000000000000815260040161020a90612b24565b60405180910390fd5b6000808373ffffffffffffffffffffffffffffffffffffffff1673ffffffffffffffffffffffffffffffffffffffff16815260200190815260200160002060000160003373ffffffffffffffffffffffffffffffffffffffff1673ffffffffffffffffffffffffffffffffffffffff168152602001908152602001600020600301546000808473ffffffffffffffffffffffffffffffffffffffff1673ffffffffffffffffffffffffffffffffffffffff16815260200190815260200160002060000160003373ffffffffffffffffffffffffffffffffffffffff1673ffffffffffffffffffffffffffffffffffffffff1681526020019081526020016000206002015410156105c5578173ffffffffffffffffffffffffffffffffffffffff166108fc6000808573ffffffffffffffffffffffffffffffffffffffff1673ffffffffffffffffffffffffffffffffffffffff16815260200190815260200160002060000160003373ffffffffffffffffffffffffffffffffffffffff1673ffffffffffffffffffffffffffffffffffffffff168152602001908152602001600020600201549081150290604051600060405180830381858888f193505050501580156103e4573d6000803e3d6000fd5b503373ffffffffffffffffffffffffffffffffffffffff166108fc6000808573ffffffffffffffffffffffffffffffffffffffff1673ffffffffffffffffffffffffffffffffffffffff16815260200190815260200160002060000160003373ffffffffffffffffffffffffffffffffffffffff1673ffffffffffffffffffffffffffffffffffffffff168152602001908152602001600020600401549081150290604051600060405180830381858888f193505050501580156104ac573d6000803e3d6000fd5b506000808373ffffffffffffffffffffffffffffffffffffffff1673ffffffffffffffffffffffffffffffffffffffff16815260200190815260200160002060000160003373ffffffffffffffffffffffffffffffffffffffff1673ffffffffffffffffffffffffffffffffffffffff168152602001908152602001600020600080820160006101000a81549073ffffffffffffffffffffffffffffffffffffffff02191690556001820160006101000a81549073ffffffffffffffffffffffffffffffffffffffff021916905560028201600090556003820160009055600482016000905560058201600090556006820160009055600782016000905560088201600090556009820160009055505060009050610a07565b6105cf82336122cf565b6000808373ffffffffffffffffffffffffffffffffffffffff1673ffffffffffffffffffffffffffffffffffffffff16815260200190815260200160002060000160003373ffffffffffffffffffffffffffffffffffffffff1673ffffffffffffffffffffffffffffffffffffffff168152602001908152602001600020600301546000808473ffffffffffffffffffffffffffffffffffffffff1673ffffffffffffffffffffffffffffffffffffffff16815260200190815260200160002060000160003373ffffffffffffffffffffffffffffffffffffffff1673ffffffffffffffffffffffffffffffffffffffff168152602001908152602001600020600401541015610714576040517f08c379a000000000000000000000000000000000000000000000000000000000815260040161070b90612b90565b60405180910390fd5b3373ffffffffffffffffffffffffffffffffffffffff166108fc6000808573ffffffffffffffffffffffffffffffffffffffff1673ffffffffffffffffffffffffffffffffffffffff16815260200190815260200160002060000160003373ffffffffffffffffffffffffffffffffffffffff1673ffffffffffffffffffffffffffffffffffffffff168152602001908152602001600020600401549081150290604051600060405180830381858888f193505050501580156107db573d6000803e3d6000fd5b506000808373ffffffffffffffffffffffffffffffffffffffff1673ffffffffffffffffffffffffffffffffffffffff16815260200190815260200160002060000160003373ffffffffffffffffffffffffffffffffffffffff1673ffffffffffffffffffffffffffffffffffffffff168152602001908152602001600020600401546000808473ffffffffffffffffffffffffffffffffffffffff1673ffffffffffffffffffffffffffffffffffffffff16815260200190815260200160002060000160003373ffffffffffffffffffffffffffffffffffffffff1673ffffffffffffffffffffffffffffffffffffffff16815260200190815260200160002060050160008282546108ee9190612bdf565b92505081905550426000808473ffffffffffffffffffffffffffffffffffffffff1673ffffffffffffffffffffffffffffffffffffffff16815260200190815260200160002060000160003373ffffffffffffffffffffffffffffffffffffffff1673ffffffffffffffffffffffffffffffffffffffff1681526020019081526020016000206007018190555060008060008473ffffffffffffffffffffffffffffffffffffffff1673ffffffffffffffffffffffffffffffffffffffff16815260200190815260200160002060000160003373ffffffffffffffffffffffffffffffffffffffff1673ffffffffffffffffffffffffffffffffffffffff16815260200190815260200160002060040181905550600190505b919050565b60008060003373ffffffffffffffffffffffffffffffffffffffff1673ffffffffffffffffffffffffffffffffffffffff16815260200190815260200160002060000160008573ffffffffffffffffffffffffffffffffffffffff1673ffffffffffffffffffffffffffffffffffffffff1681526020019081526020016000206006015414610aa357610a9e836121eb565b6111f4565b81341015610ae6576040517f08c379a0000000000000000000000000000000000000000000000000000000008152600401610add90612ca7565b60405180910390fd5b6040518061014001604052803373ffffffffffffffffffffffffffffffffffffffff1681526020018473ffffffffffffffffffffffffffffffffffffffff16815260200134815260200183815260200160008152602001600081526020014283610b509190612bdf565b815260200160008152602001828152602001428152506000803373ffffffffffffffffffffffffffffffffffffffff1673ffffffffffffffffffffffffffffffffffffffff16815260200190815260200160002060000160008573ffffffffffffffffffffffffffffffffffffffff1673ffffffffffffffffffffffffffffffffffffffff16815260200190815260200160002060008201518160000160006101000a81548173ffffffffffffffffffffffffffffffffffffffff021916908373ffffffffffffffffffffffffffffffffffffffff16021790555060208201518160010160006101000a81548173ffffffffffffffffffffffffffffffffffffffff021916908373ffffffffffffffffffffffffffffffffffffffff16021790555060408201518160020155606082015181600301556080820151816004015560a0820151816005015560c0820151816006015560e0820151816007015561010082015181600801556101208201518160090155905050816000803373ffffffffffffffffffffffffffffffffffffffff1673ffffffffffffffffffffffffffffffffffffffff16815260200190815260200160002060000160008573ffffffffffffffffffffffffffffffffffffffff1673ffffffffffffffffffffffffffffffffffffffff1681526020019081526020016000206002016000828254610d589190612cc7565b92505081905550816000803373ffffffffffffffffffffffffffffffffffffffff1673ffffffffffffffffffffffffffffffffffffffff16815260200190815260200160002060000160008573ffffffffffffffffffffffffffffffffffffffff1673ffffffffffffffffffffffffffffffffffffffff16815260200190815260200160002060040181905550426000803373ffffffffffffffffffffffffffffffffffffffff1673ffffffffffffffffffffffffffffffffffffffff16815260200190815260200160002060000160008573ffffffffffffffffffffffffffffffffffffffff1673ffffffffffffffffffffffffffffffffffffffff168152602001908152602001600020600701819055506000803373ffffffffffffffffffffffffffffffffffffffff1673ffffffffffffffffffffffffffffffffffffffff16815260200190815260200160002060000160008473ffffffffffffffffffffffffffffffffffffffff1673ffffffffffffffffffffffffffffffffffffffff168152602001908152602001600020600801546000803373ffffffffffffffffffffffffffffffffffffffff1673ffffffffffffffffffffffffffffffffffffffff16815260200190815260200160002060000160008573ffffffffffffffffffffffffffffffffffffffff1673ffffffffffffffffffffffffffffffffffffffff1681526020019081526020016000206006016000828254610f7d9190612bdf565b925050819055508273ffffffffffffffffffffffffffffffffffffffff163373ffffffffffffffffffffffffffffffffffffffff167ffdb3fc3b775623927f00e2cf48f3a4031249fb6c8e692f680bbfbf46a377991d6000803373ffffffffffffffffffffffffffffffffffffffff1673ffffffffffffffffffffffffffffffffffffffff16815260200190815260200160002060000160008773ffffffffffffffffffffffffffffffffffffffff1673ffffffffffffffffffffffffffffffffffffffff168152602001908152602001600020600201546000803373ffffffffffffffffffffffffffffffffffffffff1673ffffffffffffffffffffffffffffffffffffffff16815260200190815260200160002060000160008873ffffffffffffffffffffffffffffffffffffffff1673ffffffffffffffffffffffffffffffffffffffff168152602001908152602001600020600301546000803373ffffffffffffffffffffffffffffffffffffffff1673ffffffffffffffffffffffffffffffffffffffff16815260200190815260200160002060000160008973ffffffffffffffffffffffffffffffffffffffff1673ffffffffffffffffffffffffffffffffffffffff168152602001908152602001600020600901546000803373ffffffffffffffffffffffffffffffffffffffff1673ffffffffffffffffffffffffffffffffffffffff16815260200190815260200160002060000160008a73ffffffffffffffffffffffffffffffffffffffff1673ffffffffffffffffffffffffffffffffffffffff168152602001908152602001600020600801546040516111eb9493929190612cfb565b60405180910390a35b505050565b806000803373ffffffffffffffffffffffffffffffffffffffff1673ffffffffffffffffffffffffffffffffffffffff16815260200190815260200160002060000160008473ffffffffffffffffffffffffffffffffffffffff1673ffffffffffffffffffffffffffffffffffffffff1681526020019081526020016000206002015410156112bd576040517f08c379a00000000000000000000000000000000000000000000000000000000081526004016112b490612d8c565b60405180910390fd5b806000803373ffffffffffffffffffffffffffffffffffffffff1673ffffffffffffffffffffffffffffffffffffffff16815260200190815260200160002060000160008473ffffffffffffffffffffffffffffffffffffffff1673ffffffffffffffffffffffffffffffffffffffff168152602001908152602001600020600201600082825461134e9190612cc7565b925050819055503373ffffffffffffffffffffffffffffffffffffffff166108fc829081150290604051600060405180830381858888f1935050505015801561139b573d6000803e3d6000fd5b506000803373ffffffffffffffffffffffffffffffffffffffff1673ffffffffffffffffffffffffffffffffffffffff16815260200190815260200160002060000160008373ffffffffffffffffffffffffffffffffffffffff1673ffffffffffffffffffffffffffffffffffffffff168152602001908152602001600020600301546000803373ffffffffffffffffffffffffffffffffffffffff1673ffffffffffffffffffffffffffffffffffffffff16815260200190815260200160002060000160008473ffffffffffffffffffffffffffffffffffffffff1673ffffffffffffffffffffffffffffffffffffffff1681526020019081526020016000206002015410156114b0576114af826114b4565b5b5050565b6114be3382611885565b6114fd576040517f08c379a00000000000000000000000000000000000000000000000000000000081526004016114f490612df8565b60405180910390fd5b8073ffffffffffffffffffffffffffffffffffffffff163373ffffffffffffffffffffffffffffffffffffffff167f2a47f085432d570578d89b5af31bea93cab7ad5e04e171eb39a89307f88035d56000803373ffffffffffffffffffffffffffffffffffffffff1673ffffffffffffffffffffffffffffffffffffffff16815260200190815260200160002060000160008573ffffffffffffffffffffffffffffffffffffffff1673ffffffffffffffffffffffffffffffffffffffff168152602001908152602001600020600201546040516115db9190612e18565b60405180910390a33373ffffffffffffffffffffffffffffffffffffffff166108fc6000803373ffffffffffffffffffffffffffffffffffffffff1673ffffffffffffffffffffffffffffffffffffffff16815260200190815260200160002060000160008473ffffffffffffffffffffffffffffffffffffffff1673ffffffffffffffffffffffffffffffffffffffff168152602001908152602001600020600201549081150290604051600060405180830381858888f193505050501580156116aa573d6000803e3d6000fd5b508073ffffffffffffffffffffffffffffffffffffffff166108fc6000803373ffffffffffffffffffffffffffffffffffffffff1673ffffffffffffffffffffffffffffffffffffffff16815260200190815260200160002060000160008473ffffffffffffffffffffffffffffffffffffffff1673ffffffffffffffffffffffffffffffffffffffff168152602001908152602001600020600401549081150290604051600060405180830381858888f19350505050158015611772573d6000803e3d6000fd5b506000803373ffffffffffffffffffffffffffffffffffffffff1673ffffffffffffffffffffffffffffffffffffffff16815260200190815260200160002060000160008273ffffffffffffffffffffffffffffffffffffffff1673ffffffffffffffffffffffffffffffffffffffff168152602001908152602001600020600080820160006101000a81549073ffffffffffffffffffffffffffffffffffffffff02191690556001820160006101000a81549073ffffffffffffffffffffffffffffffffffffffff021916905560028201600090556003820160009055600482016000905560058201600090556006820160009055600782016000905560088201600090556009820160009055505050565b6000806000808573ffffffffffffffffffffffffffffffffffffffff1673ffffffffffffffffffffffffffffffffffffffff16815260200190815260200160002060000160008473ffffffffffffffffffffffffffffffffffffffff1673ffffffffffffffffffffffffffffffffffffffff168152602001908152602001600020600601541415905092915050565b61191e3382611885565b61195d576040517f08c379a000000000000000000000000000000000000000000000000000000000815260040161195490612b24565b60405180910390fd5b60008060003373ffffffffffffffffffffffffffffffffffffffff1673ffffffffffffffffffffffffffffffffffffffff16815260200190815260200160002060000160008373ffffffffffffffffffffffffffffffffffffffff1673ffffffffffffffffffffffffffffffffffffffff168152602001908152602001600020600301546000803373ffffffffffffffffffffffffffffffffffffffff1673ffffffffffffffffffffffffffffffffffffffff16815260200190815260200160002060000160008473ffffffffffffffffffffffffffffffffffffffff1673ffffffffffffffffffffffffffffffffffffffff16815260200190815260200160002060020154611a6d9190612e62565b9050806000803373ffffffffffffffffffffffffffffffffffffffff1673ffffffffffffffffffffffffffffffffffffffff16815260200190815260200160002060000160008473ffffffffffffffffffffffffffffffffffffffff1673ffffffffffffffffffffffffffffffffffffffff1681526020019081526020016000206002016000828254611b009190612cc7565b925050819055503373ffffffffffffffffffffffffffffffffffffffff166108fc829081150290604051600060405180830381858888f19350505050158015611b4d573d6000803e3d6000fd5b506000803373ffffffffffffffffffffffffffffffffffffffff1673ffffffffffffffffffffffffffffffffffffffff16815260200190815260200160002060000160008373ffffffffffffffffffffffffffffffffffffffff1673ffffffffffffffffffffffffffffffffffffffff168152602001908152602001600020600301546000803373ffffffffffffffffffffffffffffffffffffffff1673ffffffffffffffffffffffffffffffffffffffff16815260200190815260200160002060000160008473ffffffffffffffffffffffffffffffffffffffff1673ffffffffffffffffffffffffffffffffffffffff168152602001908152602001600020600201541015611c6257611c61826114b4565b5b5050565b6000806000806000808773ffffffffffffffffffffffffffffffffffffffff163373ffffffffffffffffffffffffffffffffffffffff161480611cd457508673ffffffffffffffffffffffffffffffffffffffff163373ffffffffffffffffffffffffffffffffffffffff16145b611d13576040517f08c379a0000000000000000000000000000000000000000000000000000000008152600401611d0a90612edf565b60405180910390fd5b611d1d8888611885565b611d5c576040517f08c379a0000000000000000000000000000000000000000000000000000000008152600401611d5390612b24565b60405180910390fd5b8673ffffffffffffffffffffffffffffffffffffffff168873ffffffffffffffffffffffffffffffffffffffff167ffdb3fc3b775623927f00e2cf48f3a4031249fb6c8e692f680bbfbf46a377991d6000808c73ffffffffffffffffffffffffffffffffffffffff1673ffffffffffffffffffffffffffffffffffffffff16815260200190815260200160002060000160008b73ffffffffffffffffffffffffffffffffffffffff1673ffffffffffffffffffffffffffffffffffffffff168152602001908152602001600020600201546000808d73ffffffffffffffffffffffffffffffffffffffff1673ffffffffffffffffffffffffffffffffffffffff16815260200190815260200160002060000160008c73ffffffffffffffffffffffffffffffffffffffff1673ffffffffffffffffffffffffffffffffffffffff168152602001908152602001600020600301546000808e73ffffffffffffffffffffffffffffffffffffffff1673ffffffffffffffffffffffffffffffffffffffff16815260200190815260200160002060000160008d73ffffffffffffffffffffffffffffffffffffffff1673ffffffffffffffffffffffffffffffffffffffff168152602001908152602001600020600901546000808f73ffffffffffffffffffffffffffffffffffffffff1673ffffffffffffffffffffffffffffffffffffffff16815260200190815260200160002060000160008e73ffffffffffffffffffffffffffffffffffffffff1673ffffffffffffffffffffffffffffffffffffffff16815260200190815260200160002060080154604051611fc39493929190612cfb565b60405180910390a387876000808b73ffffffffffffffffffffffffffffffffffffffff1673ffffffffffffffffffffffffffffffffffffffff16815260200190815260200160002060000160008a73ffffffffffffffffffffffffffffffffffffffff1673ffffffffffffffffffffffffffffffffffffffff168152602001908152602001600020600201546000808c73ffffffffffffffffffffffffffffffffffffffff1673ffffffffffffffffffffffffffffffffffffffff16815260200190815260200160002060000160008b73ffffffffffffffffffffffffffffffffffffffff1673ffffffffffffffffffffffffffffffffffffffff168152602001908152602001600020600301546000808d73ffffffffffffffffffffffffffffffffffffffff1673ffffffffffffffffffffffffffffffffffffffff16815260200190815260200160002060000160008c73ffffffffffffffffffffffffffffffffffffffff1673ffffffffffffffffffffffffffffffffffffffff168152602001908152602001600020600901546000808e73ffffffffffffffffffffffffffffffffffffffff1673ffffffffffffffffffffffffffffffffffffffff16815260200190815260200160002060000160008d73ffffffffffffffffffffffffffffffffffffffff1673ffffffffffffffffffffffffffffffffffffffff168152602001908152602001600020600801549550955095509550955095509295509295509295565b6121f53382611885565b612234576040517f08c379a000000000000000000000000000000000000000000000000000000000815260040161222b90612b24565b60405180910390fd5b346000803373ffffffffffffffffffffffffffffffffffffffff1673ffffffffffffffffffffffffffffffffffffffff16815260200190815260200160002060000160008373ffffffffffffffffffffffffffffffffffffffff1673ffffffffffffffffffffffffffffffffffffffff16815260200190815260200160002060020160008282546122c59190612bdf565b9250508190555050565b5b426000808473ffffffffffffffffffffffffffffffffffffffff1673ffffffffffffffffffffffffffffffffffffffff16815260200190815260200160002060000160008373ffffffffffffffffffffffffffffffffffffffff1673ffffffffffffffffffffffffffffffffffffffff16815260200190815260200160002060060154116128755760008060008473ffffffffffffffffffffffffffffffffffffffff1673ffffffffffffffffffffffffffffffffffffffff16815260200190815260200160002060000160008373ffffffffffffffffffffffffffffffffffffffff1673ffffffffffffffffffffffffffffffffffffffff168152602001908152602001600020600601540361241c576040517f08c379a000000000000000000000000000000000000000000000000000000000815260040161241390612f71565b60405180910390fd5b6000808373ffffffffffffffffffffffffffffffffffffffff1673ffffffffffffffffffffffffffffffffffffffff16815260200190815260200160002060000160008273ffffffffffffffffffffffffffffffffffffffff1673ffffffffffffffffffffffffffffffffffffffff168152602001908152602001600020600301546000808473ffffffffffffffffffffffffffffffffffffffff1673ffffffffffffffffffffffffffffffffffffffff16815260200190815260200160002060000160008373ffffffffffffffffffffffffffffffffffffffff1673ffffffffffffffffffffffffffffffffffffffff1681526020019081526020016000206002015410612875576000808373ffffffffffffffffffffffffffffffffffffffff1673ffffffffffffffffffffffffffffffffffffffff16815260200190815260200160002060000160008273ffffffffffffffffffffffffffffffffffffffff1673ffffffffffffffffffffffffffffffffffffffff168152602001908152602001600020600801546000808473ffffffffffffffffffffffffffffffffffffffff1673ffffffffffffffffffffffffffffffffffffffff16815260200190815260200160002060000160008373ffffffffffffffffffffffffffffffffffffffff1673ffffffffffffffffffffffffffffffffffffffff16815260200190815260200160002060060160008282546126379190612bdf565b925050819055506000808373ffffffffffffffffffffffffffffffffffffffff1673ffffffffffffffffffffffffffffffffffffffff16815260200190815260200160002060000160008273ffffffffffffffffffffffffffffffffffffffff1673ffffffffffffffffffffffffffffffffffffffff168152602001908152602001600020600301546000808473ffffffffffffffffffffffffffffffffffffffff1673ffffffffffffffffffffffffffffffffffffffff16815260200190815260200160002060000160008373ffffffffffffffffffffffffffffffffffffffff1673ffffffffffffffffffffffffffffffffffffffff16815260200190815260200160002060020160008282546127509190612cc7565b925050819055506000808373ffffffffffffffffffffffffffffffffffffffff1673ffffffffffffffffffffffffffffffffffffffff16815260200190815260200160002060000160008273ffffffffffffffffffffffffffffffffffffffff1673ffffffffffffffffffffffffffffffffffffffff168152602001908152602001600020600301546000808473ffffffffffffffffffffffffffffffffffffffff1673ffffffffffffffffffffffffffffffffffffffff16815260200190815260200160002060000160008373ffffffffffffffffffffffffffffffffffffffff1673ffffffffffffffffffffffffffffffffffffffff16815260200190815260200160002060040160008282546128699190612bdf565b925050819055506122d0565b5050565b600080fd5b600073ffffffffffffffffffffffffffffffffffffffff82169050919050565b60006128a98261287e565b9050919050565b6128b98161289e565b81146128c457600080fd5b50565b6000813590506128d6816128b0565b92915050565b6000602082840312156128f2576128f1612879565b5b6000612900848285016128c7565b91505092915050565b60008115159050919050565b61291e81612909565b82525050565b60006020820190506129396000830184612915565b92915050565b6000819050919050565b6129528161293f565b811461295d57600080fd5b50565b60008135905061296f81612949565b92915050565b60008060006060848603121561298e5761298d612879565b5b600061299c868287016128c7565b93505060206129ad86828701612960565b92505060406129be86828701612960565b9150509250925092565b600080604083850312156129df576129de612879565b5b60006129ed858286016128c7565b92505060206129fe85828601612960565b9150509250929050565b60008060408385031215612a1f57612a1e612879565b5b6000612a2d858286016128c7565b9250506020612a3e858286016128c7565b9150509250929050565b612a518161289e565b82525050565b612a608161293f565b82525050565b600060c082019050612a7b6000830189612a48565b612a886020830188612a48565b612a956040830187612a57565b612aa26060830186612a57565b612aaf6080830185612a57565b612abc60a0830184612a57565b979650505050505050565b600082825260208201905092915050565b7f537562736372697074696f6e206e6f7420616374697665210000000000000000600082015250565b6000612b0e601883612ac7565b9150612b1982612ad8565b602082019050919050565b60006020820190508181036000830152612b3d81612b01565b9050919050565b7f4e6f2045544820746f20626520636f6c6c656374656421000000000000000000600082015250565b6000612b7a601783612ac7565b9150612b8582612b44565b602082019050919050565b60006020820190508181036000830152612ba981612b6d565b9050919050565b7f4e487b7100000000000000000000000000000000000000000000000000000000600052601160045260246000fd5b6000612bea8261293f565b9150612bf58361293f565b9250827fffffffffffffffffffffffffffffffffffffffffffffffffffffffffffffffff03821115612c2a57612c29612bb0565b5b828201905092915050565b7f4e6f7420656e6f7567682045544820666f72206669727374207061796d656e7460008201527f2100000000000000000000000000000000000000000000000000000000000000602082015250565b6000612c91602183612ac7565b9150612c9c82612c35565b604082019050919050565b60006020820190508181036000830152612cc081612c84565b9050919050565b6000612cd28261293f565b9150612cdd8361293f565b925082821015612cf057612cef612bb0565b5b828203905092915050565b6000608082019050612d106000830187612a57565b612d1d6020830186612a57565b612d2a6040830185612a57565b612d376060830184612a57565b95945050505050565b7f42616c616e636520746f6f206c6f772100000000000000000000000000000000600082015250565b6000612d76601083612ac7565b9150612d8182612d40565b602082019050919050565b60006020820190508181036000830152612da581612d69565b9050919050565b7f537562736372697074696f6e206e6f7420616374697665000000000000000000600082015250565b6000612de2601783612ac7565b9150612ded82612dac565b602082019050919050565b60006020820190508181036000830152612e1181612dd5565b9050919050565b6000602082019050612e2d6000830184612a57565b92915050565b7f4e487b7100000000000000000000000000000000000000000000000000000000600052601260045260246000fd5b6000612e6d8261293f565b9150612e788361293f565b925082612e8857612e87612e33565b5b828206905092915050565b7f4163636573732064656e69656420746f20746869726420706172747900000000600082015250565b6000612ec9601c83612ac7565b9150612ed482612e93565b602082019050919050565b60006020820190508181036000830152612ef881612ebc565b9050919050565b7f537562736372697074696f6e20706c616e20646f6573206e6f7420657869737460008201527f2100000000000000000000000000000000000000000000000000000000000000602082015250565b6000612f5b602183612ac7565b9150612f6682612eff565b604082019050919050565b60006020820190508181036000830152612f8a81612f4e565b905091905056fea2646970667358221220162ba69f2fc36ac58cfbf7ef812441c2a7fd971e4bbfe1eb45c07f350451489b64736f6c634300080d0033",
  "immutableReferences": {},
  "source": "// SPDX-License-Identifier: MIT\n\npragma solidity >=0.6.0 <0.9.0;\n\ncontract Subscrypto {\n    // Data about a subscription\n    // Emitted on creation of a new subscription\n    // Or on request of one of the two parties involved (sender or receiver)\n    event SubscriptionData (\n        address indexed sender,\n        address indexed receiver,\n        uint256 balance,\n        uint256 payment_amount,\n        uint time_activated,\n        uint time_between_payments\n    );\n\n    // Announcement of a cancelled subscription\n    // Emitted when cancelSubscription() is called\n    event SubscriptionCancelled (\n        address indexed sender,\n        address indexed receiver,\n        uint256 amount_withdrawn\n    );\n\n    // SubscriptionInfo struct\n    struct SubscriptionInfo {\n        address sender; // payer of subscription \n        address receiver; // payee of subscription\n        uint256 balance; // unused amount left in subscription \n        uint256 payment_amount; // agreed amount paid at each interval\n        uint256 payment_available; // amount ready to be paid out to payee instantly\n        uint256 total_paid; // total amount paid out from this subscription\n        uint next_payment_time; // next timestamp that payment_amount should be deducted from balance and added to payment_available\n        uint last_payment_time; // last time a payment was made from this subscription\n        uint time_between_payments; // interval between payment times\n        uint time_activated; // time the subscription was created\n    }\n\n    // Subscrypto Account which contains all subscriptions of a certain user\n    struct SubscryptoAccount {\n        mapping(address => SubscriptionInfo) subscriptions;\n    }\n\n    // Map which stores Subscrypto Accounts for each user\n    mapping(address => SubscryptoAccount) accounts;\n    \n    function newSubscription(address receiver, uint256 payment_amount, uint time_between_payments) public payable {\n        // If subscription already exists, add balance to it instead of creating new\n        if (accounts[msg.sender].subscriptions[receiver].next_payment_time != 0) {\n            addBalance(receiver);\n        } \n        else { // If subscription does not exist, create new subscription\n            require(msg.value >= payment_amount, \"Not enough ETH for first payment!\");\n            accounts[msg.sender].subscriptions[receiver] = SubscriptionInfo(msg.sender, receiver, msg.value, payment_amount, 0, 0, time_between_payments + block.timestamp, 0, time_between_payments, block.timestamp);\n            accounts[msg.sender].subscriptions[receiver].balance -= payment_amount;\n            accounts[msg.sender].subscriptions[receiver].payment_available = payment_amount;\n            accounts[msg.sender].subscriptions[receiver].last_payment_time = block.timestamp;\n            accounts[msg.sender].subscriptions[receiver].next_payment_time += accounts[msg.sender].subscriptions[receiver].time_between_payments;\n            // Log the new subscription\n            emit SubscriptionData(msg.sender, receiver, accounts[msg.sender].subscriptions[receiver].balance, accounts[msg.sender].subscriptions[receiver].payment_amount, accounts[msg.sender].subscriptions[receiver].time_activated, accounts[msg.sender].subscriptions[receiver].time_between_payments);\n        }\n    }\n\n    // Add balance to an existing subscriptionInfo struct\n    function addBalance(address receiver) public payable {\n        require(isActive(msg.sender, receiver), \"Subscription not active!\");\n        accounts[msg.sender].subscriptions[receiver].balance += msg.value;\n    }\n\n    // Allows a subscriber to withdraw their excess ETH and cancel their subscription \n    function cancelSubscription(address receiver) public payable {\n        require(isActive(msg.sender, receiver), \"Subscription not active\");\n        // Log the cancelled subscription\n        emit SubscriptionCancelled(msg.sender, receiver, accounts[msg.sender].subscriptions[receiver].balance);\n        // Transfer money to appropriate parties\n        payable(msg.sender).transfer(accounts[msg.sender].subscriptions[receiver].balance);\n        payable(receiver).transfer(accounts[msg.sender].subscriptions[receiver].payment_available);\n        // Reset the subscription\n        delete(accounts[msg.sender].subscriptions[receiver]);\n    }\n \n    // Withdraws a specified amount from subscription plan\n    function withdrawAmount(address receiver, uint256 amount) public payable {\n        require(accounts[msg.sender].subscriptions[receiver].balance >= amount, \"Balance too low!\");\n        accounts[msg.sender].subscriptions[receiver].balance -= amount;\n        payable(msg.sender).transfer(amount);\n        if (accounts[msg.sender].subscriptions[receiver].balance < accounts[msg.sender].subscriptions[receiver].payment_amount) {\n            cancelSubscription(receiver);\n        }\n    }\n\n    // Withdraws any excess ETH being held in escrow by the contract\n    // Cancels subscription if balance falls below payment_amount\n    function withdrawExcess(address receiver) public payable {\n        require(isActive(msg.sender, receiver), \"Subscription not active!\");\n        uint256 remainder = accounts[msg.sender].subscriptions[receiver].balance % accounts[msg.sender].subscriptions[receiver].payment_amount;\n        accounts[msg.sender].subscriptions[receiver].balance -= remainder;\n        payable(msg.sender).transfer(remainder);\n        if (accounts[msg.sender].subscriptions[receiver].balance < accounts[msg.sender].subscriptions[receiver].payment_amount) {\n            cancelSubscription(receiver);\n        }\n    }\n\n    // Checks if a subscription or payment over time is currently active, returns true if active, false otherwise\n    function isActive(address sender, address receiver) view public returns (bool) {\n        return accounts[sender].subscriptions[receiver].next_payment_time != 0;\n    }\n\n    // Emits attributes of a SubscriptionInfo struct\n    function getData(address sender, address receiver) public returns (address, address, uint256, uint256, uint, uint) {\n        require(msg.sender == sender || msg.sender == receiver, \"Access denied to third party\");\n        require(isActive(sender, receiver), \"Subscription not active!\");\n        emit SubscriptionData(sender, receiver, accounts[sender].subscriptions[receiver].balance, accounts[sender].subscriptions[receiver].payment_amount, accounts[sender].subscriptions[receiver].time_activated, accounts[sender].subscriptions[receiver].time_between_payments);\n        return (sender, receiver, accounts[sender].subscriptions[receiver].balance, accounts[sender].subscriptions[receiver].payment_amount, accounts[sender].subscriptions[receiver].time_activated, accounts[sender].subscriptions[receiver].time_between_payments);\n    }\n\n    // Called by subscription seller to receive their payment\n    function receiveSubscription(address sender) public returns (bool) {\n        require(isActive(sender, msg.sender), \"Subscription not active!\");\n        // Cancel subscription if balance is not enough\n        if (accounts[sender].subscriptions[msg.sender].balance < accounts[sender].subscriptions[msg.sender].payment_amount) {\n            // Transfer money to appropriate parties\n            payable(sender).transfer(accounts[sender].subscriptions[msg.sender].balance);\n            payable(msg.sender).transfer(accounts[sender].subscriptions[msg.sender].payment_available);\n            // Reset the subscription\n            delete(accounts[sender].subscriptions[msg.sender]);\n            return false;\n        }\n        updatePaymentAvailable(sender, msg.sender); // update amount to pay immediately before payment has to be made\n        require(accounts[sender].subscriptions[msg.sender].payment_available >= accounts[sender].subscriptions[msg.sender].payment_amount, \"No ETH to be collected!\");\n        payable(msg.sender).transfer(accounts[sender].subscriptions[msg.sender].payment_available);\n        accounts[sender].subscriptions[msg.sender].total_paid += accounts[sender].subscriptions[msg.sender].payment_available;\n        accounts[sender].subscriptions[msg.sender].last_payment_time = block.timestamp;\n        accounts[sender].subscriptions[msg.sender].payment_available = 0;\n        return true;\n    }\n\n    // Update the payment available to collect\n    function updatePaymentAvailable(address sender, address receiver) private {\n        while (accounts[sender].subscriptions[receiver].next_payment_time <= block.timestamp) {\n            require(accounts[sender].subscriptions[receiver].next_payment_time != 0, \"Subscription plan does not exist!\");\n            // Check that there is enough balance\n            if (accounts[sender].subscriptions[receiver].balance < accounts[sender].subscriptions[receiver].payment_amount) {\n                break;\n            }\n            // Adjust next payment time\n            accounts[sender].subscriptions[receiver].next_payment_time += accounts[sender].subscriptions[receiver].time_between_payments;\n            // Reduce balance by agreed amount\n            accounts[sender].subscriptions[receiver].balance -= accounts[sender].subscriptions[receiver].payment_amount;\n            // Increase total ETH available to collect by agreed amount\n            accounts[sender].subscriptions[receiver].payment_available += accounts[sender].subscriptions[receiver].payment_amount;\n            // Repeat if necessary (maybe the subscription seller hasn't cashed out in a long time?)\n        }\n    }\n}",
  "sourcePath": "/Users/aaronskepasts/Projects/COS495/ContractCreator/contracts/Subscrypto.sol",
  "compiler": {
    "name": "solc",
    "version": "0.8.13+commit.abaa5c0e.Emscripten.clang"
  },
  "schemaVersion": "3.4.7",
  "updatedAt": "2022-05-03T00:02:39.991Z",
  "networkType": "ethereum",
  "devdoc": {
    "kind": "dev",
    "methods": {},
    "version": 1
  },
  "userdoc": {
    "kind": "user",
    "methods": {},
    "version": 1
  }
}